{
  "contractName": "LiquidLocker",
  "abi": [
    {
      "anonymous": false,
      "inputs": [
        {
          "indexed": false,
          "internalType": "address",
          "name": "operator",
          "type": "address"
        },
        {
          "indexed": false,
          "internalType": "address",
          "name": "from",
          "type": "address"
        },
        {
          "indexed": false,
          "internalType": "uint256",
          "name": "tokenId",
          "type": "uint256"
        },
        {
          "indexed": false,
          "internalType": "bytes",
          "name": "data",
          "type": "bytes"
        }
      ],
      "name": "ERC721Received",
      "type": "event"
    },
    {
      "anonymous": false,
      "inputs": [
        {
          "indexed": true,
          "internalType": "address",
          "name": "singleProvider",
          "type": "address"
        }
      ],
      "name": "SingleProvider",
      "type": "event"
    },
    {
      "inputs": [],
      "name": "CONTRIBUTION_TIME",
      "outputs": [
        {
          "internalType": "uint256",
          "name": "",
          "type": "uint256"
        }
      ],
      "stateMutability": "view",
      "type": "function"
    },
    {
      "inputs": [],
      "name": "DEADLINE_TIME",
      "outputs": [
        {
          "internalType": "uint256",
          "name": "",
          "type": "uint256"
        }
      ],
      "stateMutability": "view",
      "type": "function"
    },
    {
      "inputs": [],
      "name": "FACTORY_ADDRESS",
      "outputs": [
        {
          "internalType": "address",
          "name": "",
          "type": "address"
        }
      ],
      "stateMutability": "view",
      "type": "function"
    },
    {
      "inputs": [],
      "name": "FEE",
      "outputs": [
        {
          "internalType": "uint256",
          "name": "",
          "type": "uint256"
        }
      ],
      "stateMutability": "view",
      "type": "function"
    },
    {
      "inputs": [],
      "name": "PAYMENT_TOKEN",
      "outputs": [
        {
          "internalType": "address",
          "name": "",
          "type": "address"
        }
      ],
      "stateMutability": "view",
      "type": "function"
    },
    {
      "inputs": [],
      "name": "SECONDS_IN_DAY",
      "outputs": [
        {
          "internalType": "uint256",
          "name": "",
          "type": "uint256"
        }
      ],
      "stateMutability": "view",
      "type": "function"
    },
    {
      "inputs": [],
      "name": "TRUSTEE_MULTISIG",
      "outputs": [
        {
          "internalType": "address",
          "name": "",
          "type": "address"
        }
      ],
      "stateMutability": "view",
      "type": "function"
    },
    {
      "inputs": [],
      "name": "belowFloorAsked",
      "outputs": [
        {
          "internalType": "bool",
          "name": "",
          "type": "bool"
        }
      ],
      "stateMutability": "view",
      "type": "function"
    },
    {
      "inputs": [],
      "name": "claimableBalance",
      "outputs": [
        {
          "internalType": "uint256",
          "name": "",
          "type": "uint256"
        }
      ],
      "stateMutability": "view",
      "type": "function"
    },
    {
      "inputs": [
        {
          "internalType": "address",
          "name": "",
          "type": "address"
        }
      ],
      "name": "compensations",
      "outputs": [
        {
          "internalType": "uint256",
          "name": "",
          "type": "uint256"
        }
      ],
      "stateMutability": "view",
      "type": "function"
    },
    {
      "inputs": [],
      "name": "contributionPhase",
      "outputs": [
        {
          "internalType": "bool",
          "name": "",
          "type": "bool"
        }
      ],
      "stateMutability": "view",
      "type": "function"
    },
    {
      "inputs": [
        {
          "internalType": "address",
          "name": "",
          "type": "address"
        }
      ],
      "name": "contributions",
      "outputs": [
        {
          "internalType": "uint256",
          "name": "",
          "type": "uint256"
        }
      ],
      "stateMutability": "view",
      "type": "function"
    },
    {
      "inputs": [],
      "name": "creationTime",
      "outputs": [
        {
          "internalType": "uint256",
          "name": "",
          "type": "uint256"
        }
      ],
      "stateMutability": "view",
      "type": "function"
    },
    {
      "inputs": [],
      "name": "floorAsked",
      "outputs": [
        {
          "internalType": "uint256",
          "name": "",
          "type": "uint256"
        }
      ],
      "stateMutability": "view",
      "type": "function"
    },
    {
      "inputs": [],
      "name": "floorNotReached",
      "outputs": [
        {
          "internalType": "bool",
          "name": "",
          "type": "bool"
        }
      ],
      "stateMutability": "view",
      "type": "function"
    },
    {
      "inputs": [],
      "name": "globals",
      "outputs": [
        {
          "internalType": "uint256",
          "name": "paymentTime",
          "type": "uint256"
        },
        {
          "internalType": "uint256",
          "name": "paymentRate",
          "type": "uint256"
        },
        {
          "internalType": "address",
          "name": "lockerOwner",
          "type": "address"
        },
        {
          "internalType": "address",
          "name": "tokenAddress",
          "type": "address"
        }
      ],
      "stateMutability": "view",
      "type": "function"
    },
    {
      "inputs": [],
      "name": "liquidateTo",
      "outputs": [
        {
          "internalType": "address",
          "name": "",
          "type": "address"
        }
      ],
      "stateMutability": "view",
      "type": "function"
    },
    {
      "inputs": [],
      "name": "missedDeadline",
      "outputs": [
        {
          "internalType": "bool",
          "name": "",
          "type": "bool"
        }
      ],
      "stateMutability": "view",
      "type": "function"
    },
    {
      "inputs": [],
      "name": "nextDueTime",
      "outputs": [
        {
          "internalType": "uint256",
          "name": "",
          "type": "uint256"
        }
      ],
      "stateMutability": "view",
      "type": "function"
    },
    {
      "inputs": [
        {
          "internalType": "address",
          "name": "_checkAddress",
          "type": "address"
        }
      ],
      "name": "notSingleProvider",
      "outputs": [
        {
          "internalType": "bool",
          "name": "",
          "type": "bool"
        }
      ],
      "stateMutability": "view",
      "type": "function"
    },
    {
      "inputs": [
        {
          "internalType": "address",
          "name": "_operator",
          "type": "address"
        },
        {
          "internalType": "address",
          "name": "_from",
          "type": "address"
        },
        {
          "internalType": "uint256",
          "name": "_tokenId",
          "type": "uint256"
        },
        {
          "internalType": "bytes",
          "name": "_data",
          "type": "bytes"
        }
      ],
      "name": "onERC721Received",
      "outputs": [
        {
          "internalType": "bytes4",
          "name": "",
          "type": "bytes4"
        }
      ],
      "stateMutability": "nonpayable",
      "type": "function"
    },
    {
      "inputs": [],
      "name": "ownerlessLocker",
      "outputs": [
        {
          "internalType": "bool",
          "name": "",
          "type": "bool"
        }
      ],
      "stateMutability": "view",
      "type": "function"
    },
    {
      "inputs": [],
      "name": "paymentTimeNotSet",
      "outputs": [
        {
          "internalType": "bool",
          "name": "",
          "type": "bool"
        }
      ],
      "stateMutability": "view",
      "type": "function"
    },
    {
      "inputs": [],
      "name": "penaltiesBalance",
      "outputs": [
        {
          "internalType": "uint256",
          "name": "",
          "type": "uint256"
        }
      ],
      "stateMutability": "view",
      "type": "function"
    },
    {
      "inputs": [
        {
          "internalType": "address",
          "name": "_contributor",
          "type": "address"
        },
        {
          "internalType": "uint256",
          "name": "_tokenAmount",
          "type": "uint256"
        }
      ],
      "name": "reachedTotal",
      "outputs": [
        {
          "internalType": "bool",
          "name": "",
          "type": "bool"
        }
      ],
      "stateMutability": "view",
      "type": "function"
    },
    {
      "inputs": [],
      "name": "remainingBalance",
      "outputs": [
        {
          "internalType": "uint256",
          "name": "",
          "type": "uint256"
        }
      ],
      "stateMutability": "view",
      "type": "function"
    },
    {
      "inputs": [],
      "name": "singleProvider",
      "outputs": [
        {
          "internalType": "address",
          "name": "",
          "type": "address"
        }
      ],
      "stateMutability": "view",
      "type": "function"
    },
    {
      "inputs": [
        {
          "internalType": "uint256",
          "name": "_timeStamp",
          "type": "uint256"
        }
      ],
      "name": "timeSince",
      "outputs": [
        {
          "internalType": "uint256",
          "name": "",
          "type": "uint256"
        }
      ],
      "stateMutability": "view",
      "type": "function"
    },
    {
      "inputs": [],
      "name": "totalAsked",
      "outputs": [
        {
          "internalType": "uint256",
          "name": "",
          "type": "uint256"
        }
      ],
      "stateMutability": "view",
      "type": "function"
    },
    {
      "inputs": [],
      "name": "totalCollected",
      "outputs": [
        {
          "internalType": "uint256",
          "name": "",
          "type": "uint256"
        }
      ],
      "stateMutability": "view",
      "type": "function"
    },
    {
      "inputs": [
        {
          "internalType": "uint256[]",
          "name": "_tokenId",
          "type": "uint256[]"
        },
        {
          "internalType": "address",
          "name": "_tokenAddress",
          "type": "address"
        },
        {
          "internalType": "address",
          "name": "_tokenOwner",
          "type": "address"
        },
        {
          "internalType": "uint256",
          "name": "_floorAsked",
          "type": "uint256"
        },
        {
          "internalType": "uint256",
          "name": "_totalAsked",
          "type": "uint256"
        },
        {
          "internalType": "uint256",
          "name": "_paymentTime",
          "type": "uint256"
        },
        {
          "internalType": "uint256",
          "name": "_paymentRate",
          "type": "uint256"
        }
      ],
      "name": "initialize",
      "outputs": [],
      "stateMutability": "nonpayable",
      "type": "function"
    },
    {
      "inputs": [
        {
          "internalType": "uint256",
          "name": "_newPaymntRate",
          "type": "uint256"
        }
      ],
      "name": "increasePaymentRate",
      "outputs": [],
      "stateMutability": "nonpayable",
      "type": "function"
    },
    {
      "inputs": [
        {
          "internalType": "uint256",
          "name": "_newPaymentTime",
          "type": "uint256"
        }
      ],
      "name": "decreasePaymentTime",
      "outputs": [],
      "stateMutability": "nonpayable",
      "type": "function"
    },
    {
      "inputs": [
        {
          "internalType": "uint256",
          "name": "_tokenAmount",
          "type": "uint256"
        },
        {
          "internalType": "address",
          "name": "_tokenHolder",
          "type": "address"
        }
      ],
      "name": "makeContribution",
      "outputs": [
        {
          "internalType": "uint256",
          "name": "totalIncrease",
          "type": "uint256"
        },
        {
          "internalType": "uint256",
          "name": "usersIncrease",
          "type": "uint256"
        }
      ],
      "stateMutability": "nonpayable",
      "type": "function"
    },
    {
      "inputs": [
        {
          "internalType": "uint256",
          "name": "_prepayAmount",
          "type": "uint256"
        }
      ],
      "name": "enableLocker",
      "outputs": [],
      "stateMutability": "nonpayable",
      "type": "function"
    },
    {
      "inputs": [],
      "name": "disableLocker",
      "outputs": [],
      "stateMutability": "nonpayable",
      "type": "function"
    },
    {
      "inputs": [
        {
          "internalType": "address",
          "name": "_refundAddress",
          "type": "address"
        }
      ],
      "name": "refundDueDisabled",
      "outputs": [],
      "stateMutability": "nonpayable",
      "type": "function"
    },
    {
      "inputs": [
        {
          "internalType": "address",
          "name": "_refundAddress",
          "type": "address"
        }
      ],
      "name": "refundDueSingle",
      "outputs": [],
      "stateMutability": "nonpayable",
      "type": "function"
    },
    {
      "inputs": [
        {
          "internalType": "uint256",
          "name": "_paymentAmount",
          "type": "uint256"
        }
      ],
      "name": "payBackFunds",
      "outputs": [],
      "stateMutability": "nonpayable",
      "type": "function"
    },
    {
      "inputs": [],
      "name": "liquidateLocker",
      "outputs": [],
      "stateMutability": "nonpayable",
      "type": "function"
    },
    {
      "inputs": [
        {
          "internalType": "uint256",
          "name": "_totalCollected",
          "type": "uint256"
        },
        {
          "internalType": "uint256",
          "name": "_lateDaysAmount",
          "type": "uint256"
        }
      ],
      "name": "penaltyAmount",
      "outputs": [
        {
          "internalType": "uint256",
          "name": "",
          "type": "uint256"
        }
      ],
      "stateMutability": "pure",
      "type": "function"
    },
    {
      "inputs": [],
      "name": "getLateDays",
      "outputs": [
        {
          "internalType": "uint256",
          "name": "",
          "type": "uint256"
        }
      ],
      "stateMutability": "view",
      "type": "function"
    },
    {
      "inputs": [
        {
          "internalType": "uint256",
          "name": "_totalValue",
          "type": "uint256"
        },
        {
          "internalType": "uint256",
          "name": "_paymentTime",
          "type": "uint256"
        },
        {
          "internalType": "uint256",
          "name": "_paymentRate",
          "type": "uint256"
        }
      ],
      "name": "calculatePaybacks",
      "outputs": [
        {
          "internalType": "uint256",
          "name": "totalPayback",
          "type": "uint256"
        },
        {
          "internalType": "uint256",
          "name": "epochPayback",
          "type": "uint256"
        },
        {
          "internalType": "uint256",
          "name": "teamsPayback",
          "type": "uint256"
        }
      ],
      "stateMutability": "pure",
      "type": "function"
    },
    {
      "inputs": [
        {
          "internalType": "uint256",
          "name": "_totalValue",
          "type": "uint256"
        },
        {
          "internalType": "uint256",
          "name": "_paymentTime",
          "type": "uint256"
        },
        {
          "internalType": "uint256",
          "name": "_paymentRate",
          "type": "uint256"
        }
      ],
      "name": "calculateEpoch",
      "outputs": [
        {
          "internalType": "uint256",
          "name": "",
          "type": "uint256"
        }
      ],
      "stateMutability": "pure",
      "type": "function"
    },
    {
      "inputs": [],
      "name": "claimInterestSingle",
      "outputs": [],
      "stateMutability": "nonpayable",
      "type": "function"
    },
    {
      "inputs": [],
      "name": "claimInterestPublic",
      "outputs": [],
      "stateMutability": "nonpayable",
      "type": "function"
    }
  ],
  "bytecode": "0x608060405234801561001057600080fd5b50611e88806100206000396000f3fe608060405234801561001057600080fd5b506004361061028a5760003560e01c806383ad9ffd1161015c578063c4f45423116100ce578063df3ba2b511610087578063df3ba2b5146105e2578063e21db255146105ea578063e29eb836146105f3578063ef58f9e7146105fc578063f5aa2edd1461060f578063f8dd01261461061b57600080fd5b8063c4f45423146105a3578063c57981b5146105ac578063c7d89478146105b4578063d2845977146105c7578063d8270dce146105d0578063da25de3c146105d957600080fd5b8063a4c015cc11610120578063a4c015cc14610509578063ac7c420e1461051c578063b321a7a914610537578063be72f3f81461053f578063c312452514610549578063c3a78bdb1461059a57600080fd5b806383ad9ffd146104b1578063877c86fb146104b95780638823151b146104d45780638a4cfd34146104ef5780638d791478146104f757600080fd5b80633941aab11161020057806361a52a36116101b957806361a52a3614610444578063639d7e861461044e57806363df72ea146104565780637ac159af146104815780637c282ef9146104945780638127d4791461049e57600080fd5b80633941aab1146103d857806342e94c90146103e157806345a92c961461040157806357091c3f146104095780635d2dfce51461041c57806361790a811461043c57600080fd5b80631310dfad116102525780631310dfad14610313578063150b7a02146103265780632b7de7dd146103525780633187e5a014610365578063321d2f92146103785780633543b2c0146103a657600080fd5b8063013063731461028f578063033edd0f146102bc578063079a71ba146102d357806309ad90b2146102eb5780630e25569e14610300575b600080fd5b6102a261029d366004611a3b565b610623565b604080519283526020830191909152015b60405180910390f35b6102c5600b5481565b6040519081526020016102b3565b6102db6106fc565b60405190151581526020016102b3565b6102fe6102f9366004611a67565b610720565b005b6102c561030e366004611a80565b6108b1565b6102fe610321366004611aa2565b6108c4565b610339610334366004611abd565b610966565b6040516001600160e01b031990911681526020016102b3565b6102db610360366004611aa2565b6109b9565b6102c5610373366004611a67565b6109ea565b61038b610386366004611b58565b6109f6565b604080519384526020840192909252908201526060016102b3565b6102db6103b4366004611b84565b6007546001600160a01b03929092166000908152600e602052604090205401101590565b6102c560075481565b6102c56103ef366004611aa2565b600e6020526000908152604090205481565b6102fe610a2c565b6102fe610417366004611a67565b610b14565b6102c561042a366004611aa2565b600f6020526000908152604090205481565b6102db610bcc565b6102c56201518081565b6102db610be9565b600554610469906001600160a01b031681565b6040516001600160a01b0390911681526020016102b3565b6102fe61048f366004611aa2565b610c00565b6102c56206978081565b6102c56104ac366004611b58565b610c7d565b6102fe610c9c565b61046973d627ba3b9d89b99aa140bbdefd005e8cdf395a2581565b61046973938be4c47b909613441427db721b66d73ddd58c081565b610469610d28565b6003546001600160a01b0316156102db565b6102fe610517366004611a67565b610d65565b61046973a803c226c8281550454523191375695928dcfe9281565b6102fe610f03565b6102c562093a8081565b60015460025460035460045461056b9392916001600160a01b03908116911684565b6040805194855260208501939093526001600160a01b03918216928401929092521660608201526080016102b3565b6102c560065481565b6102c560095481565b6102c5601481565b6102fe6105c2366004611a67565b610fbd565b6102c5600c5481565b6102c5600d5481565b6102c5600a5481565b6102fe611075565b600c54156102db565b6102c560085481565b6102fe61060a366004611bae565b6110f9565b600654600854106102db565b6102c561125f565b60008061062e610be9565b151560011480156106425750600c54156001145b6106675760405162461bcd60e51b815260040161065e90611c66565b60405180910390fd5b3373938be4c47b909613441427db721b66d73ddd58c0146106ca5760405162461bcd60e51b815260206004820152601d60248201527f4c69717569644c6f636b65723a20494e56414c49445f464143544f5259000000604482015260640161065e565b6106d38461128c565b91506106e08385846112bd565b90506106ec83826112fb565b6106f58261133f565b9250929050565b6000610706610be9565b15801561071b57506006546008541015156001145b905090565b610728610bcc565b1561076e5760405162461bcd60e51b81526020600482015260166024820152754c69717569644c6f636b65723a20544f4f5f4c41544560501b604482015260640161065e565b3373938be4c47b909613441427db721b66d73ddd58c0146107d15760405162461bcd60e51b815260206004820152601d60248201527f4c69717569644c6f636b65723a20494e56414c49445f41444452455353000000604482015260640161065e565b6107e2816107dd611353565b611368565b600a546108725760005b60005481101561084757600354600454600080546108359330936001600160a01b03918216939116918690811061082557610825611c9d565b90600052602060002001546113ab565b8061083f81611cc9565b9150506107ec565b5061085d600380546001600160a01b0319169055565b6108676000600c55565b61086f611593565b50565b600854600154600254610886929190610c7d565b6108909082611cfa565b61089a9042611d1c565b600c819055600154101561086f57600154600c5550565b60006108bd8383611609565b9392505050565b6003546001600160a01b0316151515600114806108ea57506108e46106fc565b15156001145b6109365760405162461bcd60e51b815260206004820152601c60248201527f4c69717569644c6f636b65723a20454e41424c45445f4c4f434b455200000000604482015260640161065e565b6001600160a01b0381166000908152600e6020526040902054610959818361164c565b61096281611684565b5050565b60007fa05d90f300156ad1b545bc5d8197024456f21d22a708f5af04dd293e3d605251868686868660405161099f959493929190611d34565b60405180910390a150630a85bd0160e11b95945050505050565b6005546000906001600160a01b038381169116148015906109e457506005546001600160a01b031615155b92915050565b60006109e48242611d88565b600080806064848101870204925060648684036014020490508486840381610a2057610a20611ce4565b04915093509350939050565b6003546001600160a01b03163314610a565760405162461bcd60e51b815260040161065e90611d9f565b600654600854101515600114610aae5760405162461bcd60e51b815260206004820152601b60248201527f4c69717569644c6f636b65723a20464c4f4f525f524541434845440000000000604482015260640161065e565b60005b600054811015610afc5760035460045460008054610aea9330936001600160a01b03918216939116918690811061082557610825611c9d565b80610af481611cc9565b915050610ab1565b50610b12600380546001600160a01b0319169055565b565b6003546001600160a01b03163314610b3e5760405162461bcd60e51b815260040161065e90611d9f565b610b46610be9565b15156001148015610b5a5750600c54156001145b610b765760405162461bcd60e51b815260040161065e90611c66565b6001548110610bc75760405162461bcd60e51b815260206004820152601e60248201527f4c69717569644c6f636b65723a20494e56414c49445f44454352454153450000604482015260640161065e565b600155565b600080600c5411801561071b57504262093a80600c540110905090565b600062069780610bfa600d546109ea565b10905090565b610c09816109b9565b1515600114610c5a5760405162461bcd60e51b815260206004820152601c60248201527f4c69717569644c6f636b65723a20494e56414c49445f53454e44455200000000604482015260640161065e565b6001600160a01b0381166000908152600e602052604090205461086f908261164c565b60008260648584020481610c9357610c93611ce4565b04949350505050565b600c54610cbb5760405162461bcd60e51b815260040161065e90611c66565b6005546001600160a01b03163314610d1f5760405162461bcd60e51b815260206004820152602160248201527f4c69717569644c6f636b65723a204e4f545f53494e474c455f50524f564944456044820152602960f91b606482015260840161065e565b610b1233611692565b6005546000906001600160a01b031615610d4c57506005546001600160a01b031690565b5073a803c226c8281550454523191375695928dcfe9290565b6003546001600160a01b03163314610d8f5760405162461bcd60e51b815260040161065e90611d9f565b6006546008541015610de35760405162461bcd60e51b815260206004820152601960248201527f4c69717569644c6f636b65723a2042454c4f575f464c4f4f5200000000000000604482015260640161065e565b600c5415600114610e365760405162461bcd60e51b815260206004820152601c60248201527f4c69717569644c6f636b65723a20454e41424c45445f4c4f434b455200000000604482015260640161065e565b6000806000610e526008546000600101546000600201546109f6565b600987905591945092509050610e688484611d88565b600a55600354600854610eb39173d627ba3b9d89b99aa140bbdefd005e8cdf395a25916001600160a01b03909116908490610ea4908990611d88565b610eae9190611d88565b61174e565b610ee673d627ba3b9d89b99aa140bbdefd005e8cdf395a2573a803c226c8281550454523191375695928dcfe928361174e565b610ef08285611cfa565b610efa9042611d1c565b600c5550505050565b610f0b610bcc565b1515600114610f5c5760405162461bcd60e51b815260206004820152601760248201527f4c69717569644c6f636b65723a20544f4f5f4541524c59000000000000000000604482015260640161065e565b60005b600054811015610faa57610f9830610f75610d28565b600454600080546001600160a01b03909216918690811061082557610825611c9d565b80610fa281611cc9565b915050610f5f565b50610fb56000600c55565b610b12611899565b6003546001600160a01b03163314610fe75760405162461bcd60e51b815260040161065e90611d9f565b610fef610be9565b151560011480156110035750600c54156001145b61101f5760405162461bcd60e51b815260040161065e90611c66565b60025481116110705760405162461bcd60e51b815260206004820152601e60248201527f4c69717569644c6f636b65723a20494e56414c49445f494e4352454153450000604482015260640161065e565b600255565b600c546110945760405162461bcd60e51b815260040161065e90611c66565b6005546001600160a01b031615610d1f5760405162461bcd60e51b8152602060048201526024808201527f4c69717569644c6f636b65723a2053494e474c455f50524f56494445525f45586044820152634953545360e01b606482015260840161065e565b3373938be4c47b909613441427db721b66d73ddd58c01461115c5760405162461bcd60e51b815260206004820152601d60248201527f4c69717569644c6f636b65723a20494e56414c49445f464143544f5259000000604482015260640161065e565b6040518060a0016040528089898080602002602001604051908101604052809392919081815260200183836020028082843760009201829052509385525050506020808301869052604083018590526001600160a01b03808a1660608501528a166080909301929092528251805191926111db928492909101906119c8565b50602082015160018201556040820151600282015560608201516003820180546001600160a01b03199081166001600160a01b039384161790915560809093015160049092018054909316911617905560068490556007839055600d54156112515761125160006009819055600a819055600b55565b505042600d55505050505050565b6000600c5442116112705750600090565b62015180600c5442038161128657611286611ce4565b04905090565b60006007548260085461129f9190611d1c565b106112b9576008546007546112b49190611d88565b6109e4565b5090565b6007546001600160a01b0384166000908152600e6020526040812054909190840110156112ea57816112f3565b6112f3846118f6565b949350505050565b6001600160a01b0382166000908152600e602052604090205461131f908290611d1c565b6001600160a01b039092166000908152600e602052604090209190915550565b8060085461134d9190611d1c565b60085550565b600061071b60085461136361125f565b611609565b816009546113769190611d1c565b600955600b54611387908290611d1c565b600b55600a54819061139a908490611d88565b6113a49190611d1c565b600a555050565b60606001600160a01b0383167306012c8cf97bead5deae237070f9587f8e7a266d141561141f576040516001600160a01b03851660248201526044810183905260640160408051601f198184030181529190526020810180516001600160e01b031663a9059cbb60e01b17905290506114e2565b6001600160a01b03831673eb59fe75ac86df3997a990ede100b90ddcf9a8261415611491576040516001600160a01b03851660248201526044810183905260640160408051601f198184030181529190526020810180516001600160e01b03166322dca8bb60e21b17905290506114e2565b6040516001600160a01b038087166024830152851660448201526064810183905260840160408051601f198184030181529190526020810180516001600160e01b0316632142170760e11b17905290505b6000836001600160a01b0316826040516114fc9190611dd6565b6000604051808303816000865af19150503d8060008114611539576040519150601f19603f3d011682016040523d82523d6000602084013e61153e565b606091505b509091505060018115151461158b5760405162461bcd60e51b815260206004820152601360248201527213919517d514905394d1915497d19052531151606a1b604482015260640161065e565b505050505050565b600b54600060646115a5601484611e11565b6115af9190611cfa565b90506115e473d627ba3b9d89b99aa140bbdefd005e8cdf395a2573a803c226c8281550454523191375695928dcfe928361174e565b80826009546115f39190611d1c565b6115fd9190611d88565b60095550506000600b55565b6000816004811161163d5760c881828161162557611625611ce4565b06820185028161163757611637611ce4565b046112f3565b60c86003821682018502610c93565b6001600160a01b0381166000908152600e602052604081205561096273d627ba3b9d89b99aa140bbdefd005e8cdf395a25828461174e565b8060085461134d9190611d88565b6008546001600160a01b0382166000908152600e60205260408120546009549192916116be9190611e11565b6116c89190611cfa565b6001600160a01b0383166000908152600f602052604090205490915061170a9073d627ba3b9d89b99aa140bbdefd005e8cdf395a25908490610eae9085611d88565b6001600160a01b0382166000908152600f602052604090205461172e908290611d1c565b6001600160a01b039092166000908152600f602052604090209190915550565b604080518082018252601981527f7472616e7366657228616464726573732c75696e74323536290000000000000060209182015281516001600160a01b0385811660248301526044808301869052845180840390910181526064909201845291810180516001600160e01b031663a9059cbb60e01b179052915160009283928716916117da9190611dd6565b6000604051808303816000865af19150503d8060008114611817576040519150601f19603f3d011682016040523d82523d6000602084013e61181c565b606091505b50915091508180156118465750805115806118465750808060200190518101906118469190611e30565b6118925760405162461bcd60e51b815260206004820152601d60248201527f4c697175696448656c7065723a205452414e534645525f4641494c4544000000604482015260640161065e565b5050505050565b600954600b5411156118a757565b6118dc73d627ba3b9d89b99aa140bbdefd005e8cdf395a2573a803c226c8281550454523191375695928dcfe92600b5461174e565b600b546009546118ec9190611d88565b6009556000600b55565b6005546000906001600160a01b0316156119525760405162461bcd60e51b815260206004820152601d60248201527f4c69717569644c6f636b65723a2050524f56494445525f455849535453000000604482015260640161065e565b6001600160a01b0382166000908152600e60205260409020546007546119789190611d88565b600580546001600160a01b0319166001600160a01b038516908117909155604051919250907fa8e3ca4247db2496d53f8dad417cfdbf99a15113fec656dd912510ded68adbac90600090a2919050565b828054828255906000526020600020908101928215611a03579160200282015b82811115611a035782518255916020019190600101906119e8565b506112b99291505b808211156112b95760008155600101611a0b565b80356001600160a01b0381168114611a3657600080fd5b919050565b60008060408385031215611a4e57600080fd5b82359150611a5e60208401611a1f565b90509250929050565b600060208284031215611a7957600080fd5b5035919050565b60008060408385031215611a9357600080fd5b50508035926020909101359150565b600060208284031215611ab457600080fd5b6108bd82611a1f565b600080600080600060808688031215611ad557600080fd5b611ade86611a1f565b9450611aec60208701611a1f565b935060408601359250606086013567ffffffffffffffff80821115611b1057600080fd5b818801915088601f830112611b2457600080fd5b813581811115611b3357600080fd5b896020828501011115611b4557600080fd5b9699959850939650602001949392505050565b600080600060608486031215611b6d57600080fd5b505081359360208301359350604090920135919050565b60008060408385031215611b9757600080fd5b611ba083611a1f565b946020939093013593505050565b60008060008060008060008060e0898b031215611bca57600080fd5b883567ffffffffffffffff80821115611be257600080fd5b818b0191508b601f830112611bf657600080fd5b813581811115611c0557600080fd5b8c60208260051b8501011115611c1a57600080fd5b60209283019a509850611c30918b019050611a1f565b9550611c3e60408a01611a1f565b979a96995094976060810135966080820135965060a0820135955060c0909101359350915050565b6020808252601b908201527f4c69717569644c6f636b65723a20494e56414c49445f50484153450000000000604082015260600190565b634e487b7160e01b600052603260045260246000fd5b634e487b7160e01b600052601160045260246000fd5b6000600019821415611cdd57611cdd611cb3565b5060010190565b634e487b7160e01b600052601260045260246000fd5b600082611d1757634e487b7160e01b600052601260045260246000fd5b500490565b60008219821115611d2f57611d2f611cb3565b500190565b6001600160a01b038681168252851660208201526040810184905260806060820181905281018290526000828460a0840137600060a0848401015260a0601f19601f85011683010190509695505050505050565b600082821015611d9a57611d9a611cb3565b500390565b6020808252601b908201527f4c69717569644c6f636b65723a20494e56414c49445f4f574e45520000000000604082015260600190565b6000825160005b81811015611df75760208186018101518583015201611ddd565b81811115611e06576000828501525b509190910192915050565b6000816000190483118215151615611e2b57611e2b611cb3565b500290565b600060208284031215611e4257600080fd5b815180151581146108bd57600080fdfea2646970667358221220859a39ac8fb70b6c4f485da23beefabaa02f8f374f6f0a6f0cb36d055141aecd64736f6c634300080a0033",
  "immutableReferences": {},
  "source": "// SPDX-License-Identifier: WISE\n\npragma solidity ^0.8.9;\n\nimport \"./LiquidHelper.sol\";\nimport \"./LiquidTransfer.sol\";\n\ncontract LiquidLocker is LiquidTransfer, LiquidHelper {\n\n    modifier onlyLockerOwner() {\n        require(\n           msg.sender == globals.lockerOwner,\n           'LiquidLocker: INVALID_OWNER'\n        );\n        _;\n    }\n\n    modifier onlyDuringContributionPhase() {\n        require(\n            contributionPhase() == true &&\n            paymentTimeNotSet() == true,\n            'LiquidLocker: INVALID_PHASE'\n        );\n        _;\n    }\n\n    modifier onlyAfterContributionPhase() {\n        require(\n            paymentTimeNotSet() == false,\n            'LiquidLocker: INVALID_PHASE'\n        );\n        _;\n    }\n\n    event SingleProvider(\n        address indexed singleProvider\n    );\n\n    function initialize(\n        uint256[] calldata _tokenId,\n        address _tokenAddress,\n        address _tokenOwner,\n        uint256 _floorAsked,\n        uint256 _totalAsked,\n        uint256 _paymentTime,\n        uint256 _paymentRate\n    )\n        external\n    {\n        require(\n            msg.sender == FACTORY_ADDRESS,\n            'LiquidLocker: INVALID_FACTORY'\n        );\n\n        globals = Globals({\n            tokenId: _tokenId,\n            lockerOwner: _tokenOwner,\n            tokenAddress: _tokenAddress,\n            paymentTime: _paymentTime,\n            paymentRate: _paymentRate\n        });\n\n        floorAsked = _floorAsked;\n        totalAsked = _totalAsked;\n\n        if (creationTime > 0) {\n            _resetValues();\n        }\n\n        creationTime = block.timestamp;\n    }\n\n    function _resetValues()\n        internal\n    {\n        claimableBalance = 0;\n        remainingBalance = 0;\n        penaltiesBalance = 0;\n    }\n\n    function increasePaymentRate(\n        uint256 _newPaymntRate\n    )\n        external\n        onlyLockerOwner\n        onlyDuringContributionPhase\n    {\n        require(\n            _newPaymntRate > globals.paymentRate,\n            'LiquidLocker: INVALID_INCREASE'\n        );\n\n        globals.paymentRate = _newPaymntRate;\n    }\n\n    function decreasePaymentTime(\n        uint256 _newPaymentTime\n    )\n        external\n        onlyLockerOwner\n        onlyDuringContributionPhase\n    {\n        require(\n            _newPaymentTime < globals.paymentTime,\n            'LiquidLocker: INVALID_DECREASE'\n        );\n\n        globals.paymentTime = _newPaymentTime;\n    }\n\n    function makeContribution(\n        uint256 _tokenAmount,\n        address _tokenHolder\n    )\n        external\n        onlyDuringContributionPhase\n        returns (\n            uint256 totalIncrease,\n            uint256 usersIncrease\n        )\n    {\n        require(\n            msg.sender == FACTORY_ADDRESS,\n            'LiquidLocker: INVALID_FACTORY'\n        );\n\n        totalIncrease = _totalIncrease(\n            _tokenAmount\n        );\n\n        usersIncrease = _usersIncrease(\n            _tokenHolder,\n            _tokenAmount,\n            totalIncrease\n        );\n\n        _increaseContributions(\n            _tokenHolder,\n            usersIncrease\n        );\n\n        _increaseTotalCollected(\n            totalIncrease\n        );\n    }\n\n    function _usersIncrease(\n        address _tokenHolder,\n        uint256 _tokenAmount,\n        uint256 _totalAmount\n    )\n        internal\n        returns (uint256)\n    {\n        return reachedTotal(_tokenHolder, _tokenAmount)\n            ? _reachedTotal(_tokenHolder)\n            : _totalAmount;\n    }\n\n    function _totalIncrease(\n        uint256 _tokenAmount\n    )\n        internal\n        view\n        returns (uint256 totalIncrease)\n    {\n        totalIncrease = totalCollected\n            + _tokenAmount < totalAsked\n            ? _tokenAmount : totalAsked - totalCollected;\n    }\n\n    function _reachedTotal(\n        address _tokenHolder\n    )\n        internal\n        returns (uint256 totalReach)\n    {\n        require(\n            singleProvider == ZERO_ADDRESS,\n            'LiquidLocker: PROVIDER_EXISTS'\n        );\n\n        totalReach = totalAsked\n            - contributions[_tokenHolder];\n\n        singleProvider = _tokenHolder;\n\n        emit SingleProvider(\n            _tokenHolder\n        );\n    }\n\n    function enableLocker(\n        uint256 _prepayAmount\n    )\n        external\n        onlyLockerOwner\n    {\n        require(\n            belowFloorAsked() == false,\n            'LiquidLocker: BELOW_FLOOR'\n        );\n\n        require(\n            paymentTimeNotSet() == true,\n            'LiquidLocker: ENABLED_LOCKER'\n        );\n\n        (\n            uint256 totalPayback,\n            uint256 epochPayback,\n            uint256 teamsPayback\n\n        ) = calculatePaybacks(\n            totalCollected,\n            globals.paymentTime,\n            globals.paymentRate\n        );\n\n        claimableBalance = _prepayAmount;\n        remainingBalance = totalPayback\n            - _prepayAmount;\n\n        _safeTransfer(\n            PAYMENT_TOKEN,\n            globals.lockerOwner,\n            totalCollected - _prepayAmount - teamsPayback\n        );\n\n        _safeTransfer(\n            PAYMENT_TOKEN,\n            TRUSTEE_MULTISIG,\n            teamsPayback\n        );\n\n        nextDueTime = block.timestamp\n            + _prepayAmount / epochPayback;\n    }\n\n    function disableLocker()\n        external\n        onlyLockerOwner\n    {\n        require(\n            belowFloorAsked() == true,\n            'LiquidLocker: FLOOR_REACHED'\n        );\n\n        for (uint256 i = 0; i < globals.tokenId.length; i++) {\n            _transferNFT(\n                address(this),\n                globals.lockerOwner,\n                globals.tokenAddress,\n                globals.tokenId[i]\n            );\n        }\n\n        _revokeOwner();\n    }\n\n    function refundDueDisabled(\n        address _refundAddress\n    )\n        external\n    {\n        require(\n            ownerlessLocker() == true ||\n            floorNotReached() == true,\n            \"LiquidLocker: ENABLED_LOCKER\"\n        );\n\n        uint256 tokenAmount = contributions[_refundAddress];\n\n        _refundTokens(\n            tokenAmount,\n            _refundAddress\n        );\n\n        _decreaseTotalCollected(\n            tokenAmount\n        );\n    }\n\n    function refundDueSingle(\n        address _refundAddress\n    )\n        external\n    {\n        require(\n            notSingleProvider(_refundAddress) == true,\n            'LiquidLocker: INVALID_SENDER'\n        );\n\n        _refundTokens(\n            contributions[_refundAddress],\n            _refundAddress\n        );\n    }\n\n    function payBackFunds(\n        uint256 _paymentAmount\n    )\n        external\n    {\n        require(\n            missedDeadline() == false,\n            'LiquidLocker: TOO_LATE'\n        );\n\n        require(\n            msg.sender == FACTORY_ADDRESS,\n            'LiquidLocker: INVALID_ADDRESS'\n        );\n\n        _adjustBalances(\n            _paymentAmount,\n            _penaltyAmount()\n        );\n\n        if (remainingBalance == 0) {\n\n            for (uint256 i = 0; i < globals.tokenId.length; i++) {\n                _transferNFT(\n                    address(this),\n                    globals.lockerOwner,\n                    globals.tokenAddress,\n                    globals.tokenId[i]\n                );\n            }\n\n            _revokeOwner();\n            _revokeDueTime();\n            _splitPenalties();\n\n            return;\n        }\n\n        nextDueTime = block.timestamp + (\n            _paymentAmount / calculateEpoch (\n                totalCollected,\n                globals.paymentTime,\n                globals.paymentRate\n            )\n        );\n\n        if (nextDueTime > globals.paymentTime) {\n            nextDueTime = globals.paymentTime;\n        }\n    }\n\n    function liquidateLocker()\n        external\n    {\n        require(\n            missedDeadline() == true,\n            'LiquidLocker: TOO_EARLY'\n        );\n\n        for (uint256 i = 0; i < globals.tokenId.length; i++) {\n            _transferNFT(\n                address(this),\n                liquidateTo(),\n                globals.tokenAddress,\n                globals.tokenId[i]\n            );\n        }\n\n        _revokeDueTime();\n        _claimPenalties();\n    }\n\n    function penaltyAmount(\n        uint256 _totalCollected,\n        uint256 _lateDaysAmount\n    )\n        external\n        pure\n        returns (uint256)\n    {\n        return _getPenaltyAmount(\n            _totalCollected,\n            _lateDaysAmount\n        );\n    }\n\n    function _penaltyAmount()\n        internal\n        view\n        returns (uint256)\n    {\n        return _getPenaltyAmount(\n            totalCollected,\n            getLateDays()\n        );\n    }\n\n    function _getPenaltyAmount(\n        uint256 _totalCollected,\n        uint256 _lateDaysAmount\n    )\n        private\n        pure\n        returns (uint256)\n    {\n        uint256 d = _lateDaysAmount;\n        unchecked {\n            return d > 4\n               ? _totalCollected * (d + d % 4) / 200\n               : _totalCollected * (d + d % d) / 200;\n        }\n    }\n\n    function getLateDays()\n        public\n        view\n        returns (uint256)\n    {\n        unchecked {\n            return block.timestamp > nextDueTime\n                ? (block.timestamp - nextDueTime) / SECONDS_IN_DAY : 0;\n        }\n    }\n\n    function calculatePaybacks(\n        uint256 _totalValue,\n        uint256 _paymentTime,\n        uint256 _paymentRate\n    )\n        public\n        pure\n        returns (\n            uint256 totalPayback,\n            uint256 epochPayback,\n            uint256 teamsPayback\n        )\n    {\n        unchecked {\n            totalPayback = _totalValue * (100 + _paymentRate) / 100;\n            teamsPayback = (totalPayback - _totalValue) * FEE / 100;\n            epochPayback = (totalPayback - _totalValue) / _paymentTime;\n        }\n    }\n\n    function calculateEpoch(\n        uint256 _totalValue,\n        uint256 _paymentTime,\n        uint256 _paymentRate\n    )\n        public\n        pure\n        returns (uint256)\n    {\n        unchecked {\n            return _totalValue * _paymentRate / 100 / _paymentTime;\n        }\n    }\n\n    function claimInterestSingle()\n        external\n        onlyAfterContributionPhase\n    {\n        require(\n            singleProvider == msg.sender,\n            'LiquidLocker: NOT_SINGLE_PROVIDER'\n        );\n\n        _claimInterest(msg.sender);\n    }\n\n    function claimInterestPublic()\n        external\n        onlyAfterContributionPhase\n    {\n        require(\n            singleProvider == ZERO_ADDRESS,\n            'LiquidLocker: SINGLE_PROVIDER_EXISTS'\n        );\n\n        _claimInterest(msg.sender);\n    }\n\n    function _claimInterest(\n        address _claimAddress\n    )\n        internal\n    {\n        uint256 claimAmount = claimableBalance\n            * contributions[_claimAddress]\n            / totalCollected;\n\n        _safeTransfer(\n            PAYMENT_TOKEN,\n            _claimAddress,\n            claimAmount - compensations[_claimAddress]\n        );\n\n        compensations[_claimAddress] =\n        compensations[_claimAddress] + claimAmount;\n    }\n\n    function _claimPenalties()\n        internal\n    {\n        if (penaltiesBalance > claimableBalance) return;\n\n        _safeTransfer(\n            PAYMENT_TOKEN,\n            TRUSTEE_MULTISIG,\n            penaltiesBalance\n        );\n\n        claimableBalance =\n        claimableBalance - penaltiesBalance;\n\n        penaltiesBalance = 0;\n    }\n\n    function _splitPenalties()\n        internal\n    {\n        uint256 tokenAmount = penaltiesBalance;\n        uint256 teamBalance = tokenAmount * FEE / 100;\n\n        _safeTransfer(\n            PAYMENT_TOKEN,\n            TRUSTEE_MULTISIG,\n            teamBalance\n        );\n\n        claimableBalance = claimableBalance\n            + tokenAmount\n            - teamBalance;\n\n        penaltiesBalance = 0;\n    }\n\n    function _adjustBalances(\n        uint256 _paymentTokens,\n        uint256 _penaltyTokens\n    )\n        internal\n    {\n        claimableBalance = claimableBalance\n            + _paymentTokens;\n\n        penaltiesBalance = penaltiesBalance\n            + _penaltyTokens;\n\n        remainingBalance = remainingBalance\n            - _paymentTokens\n            + _penaltyTokens;\n    }\n\n    function _refundTokens(\n        uint256 _refundAmount,\n        address _refundAddress\n    )\n        internal\n    {\n        contributions[_refundAddress] = 0;\n\n        _safeTransfer(\n            PAYMENT_TOKEN,\n            _refundAddress,\n            _refundAmount\n        );\n    }\n}\n",
  "sourcePath": "/home/dak/Desktop/Wise/contract_repos/liquid-nfts/liquid-nft-contracts/contracts/LiquidLocker.sol",
  "compiler": {
    "name": "solc",
    "version": "0.8.10+commit.fc410830.Emscripten.clang"
  },
  "schemaVersion": "3.4.3",
  "updatedAt": "2021-12-05T06:05:15.966Z",
  "devdoc": {
    "kind": "dev",
    "methods": {},
    "version": 1
  },
  "userdoc": {
    "kind": "user",
    "methods": {},
    "version": 1
  }
}